:020000040000FA
:060000000A128A11ED2F27
:100EF0008030F00070088312031386057408203ECA
:100F0000840083130008F0007008860408007E3413
:100F100030346D34793433345B345F3470347F343F
:100F20007B3477341F344E343D344F3447347E089D
:100F30008A007F0882000A128A1197270A128A11F2
:100F40008000840A04087D0603190034FF0A03198F
:100F5000FE0A9B2F8030831603138600831203132F
:100F60008601B22F83120313861FB72FB82FDA2FF3
:100F70000230F3000430F200BA30F100F10BBE2F62
:100F8000F20BBE2FF30BBE2F00000130F1007108F1
:100F9000F40710307406031DCE2FCF2FD22FF4018B
:100FA000D22FD22F83120313861BD72FD82FD22FE5
:100FB000DA2FDA2F0A128A1178270A128A111A30C8
:100FC000F200F830F100F10BE32FF20BE32F0000F9
:100FD000B22FB22F0A128A11002883133030FD007D
:100FE0000730FE008730FF00203084000A128A118B
:100FF0009B270A128A11F40183010A128A11AA2F6F
:02400E00FA3F77
:00000001FF
